{
  "contractName": "HiddenToken",
  "abi": [
    {
      "constant": false,
      "inputs": [
        {
          "name": "a",
          "type": "uint256[2]"
        },
        {
          "name": "a_p",
          "type": "uint256[2]"
        },
        {
          "name": "b",
          "type": "uint256[2][2]"
        },
        {
          "name": "b_p",
          "type": "uint256[2]"
        },
        {
          "name": "c",
          "type": "uint256[2]"
        },
        {
          "name": "c_p",
          "type": "uint256[2]"
        },
        {
          "name": "h",
          "type": "uint256[2]"
        },
        {
          "name": "k",
          "type": "uint256[2]"
        },
        {
          "name": "input",
          "type": "uint256[2]"
        }
      ],
      "name": "verifyTx",
      "outputs": [
        {
          "name": "r",
          "type": "bool"
        }
      ],
      "payable": false,
      "stateMutability": "nonpayable",
      "type": "function"
    },
    {
      "inputs": [
        {
          "name": "members",
          "type": "bytes32[]"
        },
        {
          "name": "amount",
          "type": "uint256"
        }
      ],
      "payable": false,
      "stateMutability": "nonpayable",
      "type": "constructor"
    },
    {
      "anonymous": false,
      "inputs": [
        {
          "indexed": false,
          "name": "s",
          "type": "string"
        }
      ],
      "name": "SendEvent",
      "type": "event"
    },
    {
      "anonymous": false,
      "inputs": [
        {
          "indexed": false,
          "name": "s",
          "type": "string"
        }
      ],
      "name": "Verified",
      "type": "event"
    },
    {
      "constant": true,
      "inputs": [
        {
          "name": "userAddress",
          "type": "bytes32"
        }
      ],
      "name": "getBalance",
      "outputs": [
        {
          "name": "",
          "type": "uint256"
        }
      ],
      "payable": false,
      "stateMutability": "view",
      "type": "function"
    },
    {
      "constant": false,
      "inputs": [
        {
          "name": "to",
          "type": "uint256"
        },
        {
          "name": "amount",
          "type": "uint256"
        },
        {
          "name": "a",
          "type": "uint256[2]"
        },
        {
          "name": "a_p",
          "type": "uint256[2]"
        },
        {
          "name": "b",
          "type": "uint256[2][2]"
        },
        {
          "name": "b_p",
          "type": "uint256[2]"
        },
        {
          "name": "c",
          "type": "uint256[2]"
        },
        {
          "name": "c_p",
          "type": "uint256[2]"
        },
        {
          "name": "h",
          "type": "uint256[2]"
        },
        {
          "name": "k",
          "type": "uint256[2]"
        },
        {
          "name": "input",
          "type": "uint256[2]"
        }
      ],
      "name": "sendToken",
      "outputs": [
        {
          "name": "",
          "type": "bool"
        }
      ],
      "payable": false,
      "stateMutability": "nonpayable",
      "type": "function"
    }
  ],
  "bytecode": "0x60806040523480156200001157600080fd5b50604051620020af380380620020af833981018060405262000037919081019062000197565b6000808351838115156200004757fe5b049150600090505b8351811015620000d25783818151811015156200006857fe5b90602001906020020151600080838152602001908152602001600020816000191690555081600160008684815181101515620000a057fe5b90602001906020020151600019166000191681526020019081526020016000208190555080806001019150506200004f565b505050506200025c565b600082601f8301121515620000f057600080fd5b81516200010762000101826200021f565b620001f1565b915081818352602084019350602081019050838560208402820111156200012d57600080fd5b60005b838110156200016157816200014688826200016b565b84526020840193506020830192505060018101905062000130565b5050505092915050565b600062000179825162000248565b905092915050565b60006200018f825162000252565b905092915050565b60008060408385031215620001ab57600080fd5b600083015167ffffffffffffffff811115620001c657600080fd5b620001d485828601620000dc565b9250506020620001e78582860162000181565b9150509250929050565b6000604051905081810181811067ffffffffffffffff821117156200021557600080fd5b8060405250919050565b600067ffffffffffffffff8211156200023757600080fd5b602082029050602081019050919050565b6000819050919050565b6000819050919050565b611e43806200026c6000396000f300608060405260043610610057576000357c0100000000000000000000000000000000000000000000000000000000900463ffffffff1680638e7394611461005c5780639092737614610099578063fe01ff62146100d6575b600080fd5b34801561006857600080fd5b50610083600480360361007e9190810190611ab1565b610113565b6040516100909190611d31565b60405180910390f35b3480156100a557600080fd5b506100c060048036036100bb9190810190611ada565b610138565b6040516100cd9190611cb6565b60405180910390f35b3480156100e257600080fd5b506100fd60048036036100f891908101906119e6565b6102e1565b60405161010a9190611cb6565b60405180910390f35b6000600160008360001916600019168152602001908152602001600020549050919050565b60008060007f01929b1546ac5c8cbd09f19de437245776c852d26202ac70ef8ede5dbb2e29b360405161016a90611d11565b60405180910390a1600115156101878d8d8d8d8d8d8d8d8d6102e1565b151514151561019557600080fd5b6000808560006002811015156101a757fe5b602002015181526020019081526020016000205491506000808f815260200190815260200160002054905060008d111515610217576040517f08c379a000000000000000000000000000000000000000000000000000000000815260040161020e90611cd1565b60405180910390fd5b60008d60016000856000191660001916815260200190815260200160002054031015151561027a576040517f08c379a000000000000000000000000000000000000000000000000000000000815260040161027190611cf1565b60405180910390fd5b8c600160008460001916600019168152602001908152602001600020600082825403925050819055508c600160008360001916600019168152602001908152602001600020600082825401925050819055506001925050509b9a5050505050505050505050565b60006102eb611669565b6060600060408051908101604052808e600060028110151561030957fe5b602002015181526020018e600160028110151561032257fe5b6020020151815250836000018190525060408051908101604052808d600060028110151561034c57fe5b602002015181526020018d600160028110151561036557fe5b60200201518152508360200181905250604080519081016040528060408051908101604052808e600060028110151561039a57fe5b602002015160006002811015156103ad57fe5b602002015181526020018e60006002811015156103c657fe5b602002015160016002811015156103d957fe5b6020020151815250815260200160408051908101604052808e600160028110151561040057fe5b6020020151600060028110151561041357fe5b602002015181526020018e600160028110151561042c57fe5b6020020151600160028110151561043f57fe5b6020020151815250815250836040018190525060408051908101604052808b600060028110151561046c57fe5b602002015181526020018b600160028110151561048557fe5b6020020151815250836060018190525060408051908101604052808a60006002811015156104af57fe5b602002015181526020018a60016002811015156104c857fe5b6020020151815250836080018190525060408051908101604052808960006002811015156104f257fe5b6020020151815260200189600160028110151561050b57fe5b60200201518152508360a00181905250604080519081016040528088600060028110151561053557fe5b6020020151815260200188600160028110151561054e57fe5b60200201518152508360e00181905250604080519081016040528087600060028110151561057857fe5b6020020151815260200187600160028110151561059157fe5b60200201518152508360c0018190525060026040519080825280602002602001820160405280156105d15781602001602082028038833980820191505090505b509150600090505b600281101561061e5784816002811015156105f057fe5b6020020151828281518110151561060357fe5b906020019060200201818152505080806001019150506105d9565b600061062a838561064e565b1415610639576001935061063e565b600093505b5050509998505050505050505050565b60006106586116df565b61066061174f565b600061066a610885565b92508260e0015151600187510114151561068357600080fd5b60408051908101604052806000815260200160008152509150600090505b8551811015610701576106f2826106ed8560e00151600185018151811015156106c657fe5b9060200190602002015189858151811015156106de57fe5b90602001906020020151610ec6565b610f62565b915080806001019150506106a1565b610727828460e00151600081518110151561071857fe5b90602001906020020151610f62565b915061075085600001518460000151610743886020015161101f565b61074b6110ba565b611184565b151561075f576001935061087c565b61078683602001518660400151610779886060015161101f565b6107816110ba565b611184565b1515610795576002935061087c565b6107bc856080015184604001516107af8860a0015161101f565b6107b76110ba565b611184565b15156107cb576003935061087c565b6108178560c0015184606001516107fb6107f6866107f18b600001518c60800151610f62565b610f62565b61101f565b8660a0015161080d886080015161101f565b8a6040015161128f565b1515610826576004935061087c565b610868610837838760000151610f62565b86604001516108498860e0015161101f565b8660c0015161085b8a6080015161101f565b6108636110ba565b61128f565b1515610877576005935061087c565b600093505b50505092915050565b61088d6116df565b604080519081016040528060408051908101604052807f23204396c69bfea3eacde71f89df35e2b4cb0c41308fc757b2e02edcc383699381526020017f278664016aa3021b8db8d378850361d6c3bbf8aec1ac6aa9758b21d019db5453815250815260200160408051908101604052807f2db07907780db6b101115ad6facb687fdcf82d1c48881380340f717eb34fcf7681526020017f176bfceccc221327d570fd1598f75e75058c417d072feb3b50d659101bfe9bdb815250815250816000018190525060408051908101604052807f1a3c597f2ba4ea32f0d7851f0a203484ae351c80f6b34b5f97dcf28f8cf4dd5c81526020017f047448fc26fe62642199617941899399f71d23559585c2e76212016fc6538cf98152508160200181905250604080519081016040528060408051908101604052807f20db76fe758236b1e91e3d1b9eecff1fa67f833a850e379bf5da91c97b03c52381526020017f2fa1fa694766fc2aae5b37965246b70ceab980f987033a7084191f474dddae60815250815260200160408051908101604052807f05e3cae10e6ccc8718f50f67624ce84b6c1d153c7ad14ee93f783cb2a205a5b781526020017f2bdbca7fa7d44077e21c649fb8537adf4e44de14db46a90bdf78cfc732a1503e8152508152508160400181905250604080519081016040528060408051908101604052807f22f10f37c440a410a2e342734884ed7611323d44f4fe1d9e14a87bdaf561587e81526020017f066223cffe1deeabf2dfb868089c9b4c3d518609e0564c5a911ccbb0d9aed570815250815260200160408051908101604052807f06910b7d2e0dc8c600c676108e79733bcc496116d5d6b9ed358968efc14f254d81526020017f235bba1c8c5aec39d9bfcc57e0cad377ad373b915547a5efe355726910cf013f815250815250816060018190525060408051908101604052807f037cfca24eafc7b668fc0e009ff1b846a5b8ed2977a8ec3583c2279abed103ec81526020017f137532bd454ef5c2e86702facc5f87473e1d4060a37f1db95a506e805c641ac98152508160800181905250604080519081016040528060408051908101604052807f0ac9a2947f32a516778897147e385bafb64e22eaa335aa53f438e7b60fab1cb481526020017f2d884fee71ff48865d2c3a353e9823eedcb2c7fa4f7ad610d38bcc926817c3e2815250815260200160408051908101604052807f281eda5c65fe82da2e5d9579d1e6c3234968e3f0a8c362f502d9d637536cefed81526020017f235017c33f2cf05d949686b5cf5ec94569c1ec67ed207192fbd95e9c4c2c47138152508152508160a00181905250604080519081016040528060408051908101604052807f1a45af579b7e23abfd69a234b285fdaae7d3eb9296c3ce6a310692c45db868a781526020017f26299b44ae2a245b04f31aa9c25c04b82573a1d05c0fb0d1ecbf793da584b031815250815260200160408051908101604052807f0c9e58b9a8de42bb349eb265c3f7a64f942394baae282c445c52b0867a94c1ec81526020017f249b87a1d96cbfb31095e4a5613efa8f7b28d66181f1d184c87b6d0abb84debd8152508152508160c001819052506003604051908082528060200260200182016040528015610d5b57816020015b610d48611769565b815260200190600190039081610d405790505b508160e0018190525060408051908101604052807f1be77ec6f42ac31bf5fbc3d92a9aa00c862edfbeb3d4fdd6222473302df85dea81526020017f262fc2bb66bf40fbe634230193207ffd58b365e2ceed00a6ec3451ef6108810b8152508160e001516000815181101515610dcc57fe5b9060200190602002018190525060408051908101604052807f1dd647395b426fab98ca7f065faedd111507d06b9f49083f88424319e223189e81526020017f15695e2f4f6c80318d3cfe4487c0083e63f02f2e187dc993c4ccd157c72671ae8152508160e001516001815181101515610e4157fe5b9060200190602002018190525060408051908101604052807f1835f577582dfa1d26d3d45580fcb901a71b7b209d641334f3ef608dfaa9af1481526020017f1abf1476ea34097e85e8f77754fe19efba62e1dd8e14bf348892d0aefd746c0b8152508160e001516002815181101515610eb657fe5b9060200190602002018190525090565b610ece61174f565b610ed6611783565b60008460000151826000600381101515610eec57fe5b6020020181815250508460200151826001600381101515610f0957fe5b60200201818152505083826002600381101515610f2257fe5b602002018181525050606083608084600060076107d05a03f190508060008114610f4b57610f4d565bfe5b50801515610f5a57600080fd5b505092915050565b610f6a61174f565b610f726117a6565b60008460000151826000600481101515610f8857fe5b6020020181815250508460200151826001600481101515610fa557fe5b6020020181815250508360000151826002600481101515610fc257fe5b6020020181815250508360200151826003600481101515610fdf57fe5b60200201818152505060608360c084600060066107d05a03f1905080600081146110085761100a565bfe5b5080151561101757600080fd5b505092915050565b61102761174f565b60007f30644e72e131a029b85045b68181585d97816a916871ca8d3c208c16d87cfd47905060008360000151148015611064575060008360200151145b1561108757604080519081016040528060008152602001600081525091506110b4565b6040805190810160405280846000015181526020018285602001518115156110ab57fe5b06830381525091505b50919050565b6110c26117c9565b604080519081016040528060408051908101604052807f198e9393920d483a7260bfb731fb5d25f1aa493335a9e71297e485b7aef312c281526020017f1800deef121f1e76426a00665e5c4479674322d4f75edadd46debd5cd992f6ed815250815260200160408051908101604052807f090689d0585ff075ec9e99ad690c3395bc4b313370b38ef355acdadcd122975b81526020017f12c85ea5db8c6deb4aab71808dcb408fe3d1e7690c43d37b4ce6cc0166fa7daa815250815250905090565b600060608060026040519080825280602002602001820160405280156111c457816020015b6111b1611769565b8152602001906001900390816111a95790505b509150600260405190808252806020026020018201604052801561120257816020015b6111ef6117f0565b8152602001906001900390816111e75790505b5090508682600081518110151561121557fe5b906020019060200201819052508482600181518110151561123257fe5b906020019060200201819052508581600081518110151561124f57fe5b906020019060200201819052508381600181518110151561126c57fe5b9060200190602002018190525061128382826113d6565b92505050949350505050565b600060608060036040519080825280602002602001820160405280156112cf57816020015b6112bc611769565b8152602001906001900390816112b45790505b509150600360405190808252806020026020018201604052801561130d57816020015b6112fa6117f0565b8152602001906001900390816112f25790505b5090508882600081518110151561132057fe5b906020019060200201819052508682600181518110151561133d57fe5b906020019060200201819052508482600281518110151561135a57fe5b906020019060200201819052508781600081518110151561137757fe5b906020019060200201819052508581600181518110151561139457fe5b90602001906020020181905250838160028151811015156113b157fe5b906020019060200201819052506113c882826113d6565b925050509695505050505050565b6000806000606060006113e7611817565b6000875189511415156113f957600080fd5b88519550600686029450846040519080825280602002602001820160405280156114325781602001602082028038833980820191505090505b509350600092505b8583101561160f57888381518110151561145057fe5b9060200190602002015160000151846000600686020181518110151561147257fe5b9060200190602002018181525050888381518110151561148e57fe5b906020019060200201516020015184600160068602018151811015156114b057fe5b906020019060200201818152505087838151811015156114cc57fe5b906020019060200201516000015160006002811015156114e857fe5b6020020151846002600686020181518110151561150157fe5b9060200190602002018181525050878381518110151561151d57fe5b9060200190602002015160000151600160028110151561153957fe5b6020020151846003600686020181518110151561155257fe5b9060200190602002018181525050878381518110151561156e57fe5b9060200190602002015160200151600060028110151561158a57fe5b602002015184600460068602018151811015156115a357fe5b906020019060200201818152505087838151811015156115bf57fe5b906020019060200201516020015160016002811015156115db57fe5b602002015184600560068602018151811015156115f457fe5b9060200190602002018181525050828060010193505061143a565b6020826020870260208701600060086107d05a03f19050806000811461163457611636565bfe5b5080151561164357600080fd5b600082600060018110151561165457fe5b60200201511415965050505050505092915050565b6102406040519081016040528061167e611769565b815260200161168b611769565b81526020016116986117f0565b81526020016116a5611769565b81526020016116b2611769565b81526020016116bf611769565b81526020016116cc611769565b81526020016116d9611769565b81525090565b610320604051908101604052806116f46117f0565b8152602001611701611769565b815260200161170e6117f0565b815260200161171b6117f0565b8152602001611728611769565b81526020016117356117f0565b81526020016117426117f0565b8152602001606081525090565b604080519081016040528060008152602001600081525090565b604080519081016040528060008152602001600081525090565b606060405190810160405280600390602082028038833980820191505090505090565b608060405190810160405280600490602082028038833980820191505090505090565b6080604051908101604052806117dd61183a565b81526020016117ea61183a565b81525090565b60806040519081016040528061180461183a565b815260200161181161183a565b81525090565b602060405190810160405280600190602082028038833980820191505090505090565b6040805190810160405280600290602082028038833980820191505090505090565b600082601f830112151561186f57600080fd5b600261188261187d82611d79565b611d4c565b9150818385604084028201111561189857600080fd5b60005b838110156118c857816118ae88826118d2565b84526020840193506040830192505060018101905061189b565b5050505092915050565b600082601f83011215156118e557600080fd5b60026118f86118f382611d9b565b611d4c565b9150818385602084028201111561190e57600080fd5b60005b8381101561193e578161192488826119d2565b845260208401935060208301925050600181019050611911565b5050505092915050565b600082601f830112151561195b57600080fd5b600261196e61196982611dbd565b611d4c565b9150818385602084028201111561198457600080fd5b60005b838110156119b4578161199a88826119d2565b845260208401935060208301925050600181019050611987565b5050505092915050565b60006119ca8235611df5565b905092915050565b60006119de8235611dff565b905092915050565b60008060008060008060008060006102808a8c031215611a0557600080fd5b6000611a138c828d01611948565b9950506040611a248c828d01611948565b9850506080611a358c828d0161185c565b975050610100611a478c828d01611948565b965050610140611a598c828d01611948565b955050610180611a6b8c828d01611948565b9450506101c0611a7d8c828d01611948565b935050610200611a8f8c828d01611948565b925050610240611aa18c828d01611948565b9150509295985092959850929598565b600060208284031215611ac357600080fd5b6000611ad1848285016119be565b91505092915050565b60008060008060008060008060008060006102c08c8e031215611afc57600080fd5b6000611b0a8e828f016119d2565b9b50506020611b1b8e828f016119d2565b9a50506040611b2c8e828f01611948565b9950506080611b3d8e828f01611948565b98505060c0611b4e8e828f0161185c565b975050610140611b608e828f01611948565b965050610180611b728e828f01611948565b9550506101c0611b848e828f01611948565b945050610200611b968e828f01611948565b935050610240611ba88e828f01611948565b925050610280611bba8e828f01611948565b9150509295989b509295989b9093969950565b611bd681611ddf565b82525050565b6000601c82527f4d7573742074727920746f2064656475637420736f6d657468696e67000000006020830152604082019050919050565b6000602382527f446f6e2774206861766520656e6f7567682062616c616e636520746f2064656460208301527f75637400000000000000000000000000000000000000000000000000000000006040830152606082019050919050565b6000600d82527f53656e74207375636365737321000000000000000000000000000000000000006020830152604082019050919050565b611cb081611deb565b82525050565b6000602082019050611ccb6000830184611bcd565b92915050565b60006020820190508181036000830152611cea81611bdc565b9050919050565b60006020820190508181036000830152611d0a81611c13565b9050919050565b60006020820190508181036000830152611d2a81611c70565b9050919050565b6000602082019050611d466000830184611ca7565b92915050565b6000604051905081810181811067ffffffffffffffff82111715611d6f57600080fd5b8060405250919050565b600067ffffffffffffffff821115611d9057600080fd5b602082029050919050565b600067ffffffffffffffff821115611db257600080fd5b602082029050919050565b600067ffffffffffffffff821115611dd457600080fd5b602082029050919050565b60008115159050919050565b6000819050919050565b6000819050919050565b60008190509190505600a265627a7a723058208c9916eda2f832308ae28d759783d10688be57dff400545ebaa275df2cfdfeb46c6578706572696d656e74616cf50037",
  "source": "pragma solidity ^0.4.16;\npragma experimental ABIEncoderV2;\n\nimport './Verifier.sol';\n\ncontract HiddenToken is Verifier{\n\n    //Constructor initially gives money to addresses\n    \n\n    mapping (uint => bytes32) addressMap;\n    mapping (bytes32 => uint) balances;\n\n    constructor(bytes32[] members,uint amount) public{\n        uint amountEach = amount / members.length;\n        for(uint i = 0;i < members.length;i++){\n            addressMap[i] = members[i];\n            balances[members[i]] = amountEach;\n        }\n    }\n\n    function getBalance(bytes32 userAddress) public view returns (uint){\n        return balances[userAddress];\n    }\n\n    modifier proveOwnership(\n            uint[2] a,\n            uint[2] a_p,\n            uint[2][2] b,\n            uint[2] b_p,\n            uint[2] c,\n            uint[2] c_p,\n            uint[2] h,\n            uint[2] k,\n            uint[2] input){\n                require(verifyTx(a, a_p, b, b_p, c, c_p, h, k, input) == true);\n                _;\n            }\n\n    event SendEvent(string s);\n\n    function sendToken(uint to,uint amount,\n            uint[2] a,\n            uint[2] a_p,\n            uint[2][2] b,\n            uint[2] b_p,\n            uint[2] c,\n            uint[2] c_p,\n            uint[2] h,\n            uint[2] k,\n            uint[2] input) public returns (bool){\n                emit SendEvent(\"Sent success!\");\n                require(verifyTx(a, a_p, b, b_p, c, c_p, h, k, input) == true);\n                bytes32 fromAddress = addressMap[input[0]];\n                bytes32 toAddress = addressMap[to];\n\n                require(amount > 0,\"Must try to deduct something\");\n                require((balances[fromAddress] - amount) >= 0,\"Don't have enough balance to deduct\");\n\n                balances[fromAddress]-=amount;\n                balances[toAddress]+=amount;\n                return true;\n            }\n    \n}\n    ",
  "sourcePath": "/home/daniel/code/web/zokrates_playground/contracts/HiddenToken.sol",
  "compiler": {
    "name": "solc",
    "version": "0.4.24+commit.e67f0147.Emscripten.clang"
  },
  "schemaVersion": "2.0.1",
  "updatedAt": "2018-12-14T02:26:12.090Z"
}